{"contracts/BlockReview.sol":{"BlockReview":{"abi":[{"anonymous":false,"inputs":[{"indexed":true,"internalType":"uint256","name":"projectId","type":"uint256"},{"indexed":false,"internalType":"string","name":"name","type":"string"}],"name":"ProjectAdded","type":"event"},{"anonymous":false,"inputs":[{"indexed":true,"internalType":"uint256","name":"projectId","type":"uint256"},{"indexed":true,"internalType":"address","name":"reviewer","type":"address"},{"indexed":false,"internalType":"uint256","name":"rating","type":"uint256"},{"indexed":false,"internalType":"string","name":"comments","type":"string"},{"indexed":false,"internalType":"bool","name":"verified","type":"bool"},{"indexed":false,"internalType":"uint256","name":"timestamp","type":"uint256"},{"indexed":false,"internalType":"bytes32","name":"transactionHash","type":"bytes32"}],"name":"ReviewAdded","type":"event"},{"inputs":[{"internalType":"string","name":"_name","type":"string"}],"name":"addProject","outputs":[],"stateMutability":"nonpayable","type":"function"},{"inputs":[{"internalType":"uint256","name":"_projectId","type":"uint256"},{"internalType":"uint256","name":"_rating","type":"uint256"},{"internalType":"string","name":"_comments","type":"string"},{"internalType":"bool","name":"_verified","type":"bool"}],"name":"addReview","outputs":[],"stateMutability":"nonpayable","type":"function"},{"inputs":[{"internalType":"uint256","name":"_projectId","type":"uint256"}],"name":"getReviewCount","outputs":[{"internalType":"uint256","name":"","type":"uint256"}],"stateMutability":"view","type":"function"},{"inputs":[{"internalType":"uint256","name":"_projectId","type":"uint256"}],"name":"getReviews","outputs":[{"internalType":"address[]","name":"","type":"address[]"},{"internalType":"uint256[]","name":"","type":"uint256[]"},{"internalType":"string[]","name":"","type":"string[]"},{"internalType":"bool[]","name":"","type":"bool[]"},{"internalType":"uint256[]","name":"","type":"uint256[]"},{"internalType":"bytes32[]","name":"","type":"bytes32[]"}],"stateMutability":"view","type":"function"},{"inputs":[],"name":"projectCount","outputs":[{"internalType":"uint256","name":"","type":"uint256"}],"stateMutability":"view","type":"function"},{"inputs":[{"internalType":"uint256","name":"","type":"uint256"},{"internalType":"uint256","name":"","type":"uint256"}],"name":"projectReviews","outputs":[{"internalType":"address","name":"reviewer","type":"address"},{"internalType":"uint256","name":"rating","type":"uint256"},{"internalType":"string","name":"comments","type":"string"},{"internalType":"bool","name":"verified","type":"bool"},{"internalType":"uint256","name":"timestamp","type":"uint256"},{"internalType":"bytes32","name":"transactionHash","type":"bytes32"}],"stateMutability":"view","type":"function"},{"inputs":[{"internalType":"uint256","name":"","type":"uint256"}],"name":"projects","outputs":[{"internalType":"uint256","name":"id","type":"uint256"},{"internalType":"string","name":"name","type":"string"},{"internalType":"uint256","name":"reviewCount","type":"uint256"}],"stateMutability":"view","type":"function"}],"evm":{"bytecode":{"linkReferences":{},"object":"6080806040523461001b576000600255610cd190816100218239f35b600080fdfe6080604052600436101561001257600080fd5b60003560e01c80630ed047d41461083c578063107046bd146107e25780632e5c306b146104ff57806336fbad26146104e15780635d75135a146104aa57806393b1523a1461041457639d4a22551461006957600080fd5b3461040f57602036600319011261040f576004356000526000602052604060002080541561040f576002015461009e81610c27565b906100ac6040519283610a4b565b808252601f196100bb82610c27565b013660208401376100cb81610c3f565b906100d581610c27565b6100e26040519182610a4b565b818152601f196100f183610c27565b0160005b8181106103fc57505061010782610c27565b906101156040519283610a4b565b828252601f1961012484610c27565b0136602084013761013483610c3f565b9061013e84610c27565b9361014c6040519586610a4b565b808552601f1961015b82610c27565b0136602087013760015b818111156102c057505060405195869560c0870160c088528251809152602060e0890193019060005b81811061029e57505050906101aa918782036020890152610be4565b8581036040870152815180825260208201916020808360051b8301019401926000915b83831061026757505050505084810360608601526020808451928381520193019060005b81811061024c575050509061020d918482036080860152610be4565b82810360a08401526020808351928381520192019060005b818110610233575050500390f35b8251845285945060209384019390920191600101610225565b825115158552879650602094850194909201916001016101f1565b919395969798509193602080610289600193601f198682030187528951610ba4565b970193019301909289989796959492936101cd565b82516001600160a01b031685528a99506020948501949092019160010161018e565b600497929394959697356000526001602052604060002081600052602052604060002090604051916102f183610a2f565b80546001600160a01b039081168452600182015460208501529060059061031a60028201610afe565b604086015260ff6003820154161515606086015260048101546080860152015460a0840152825116816000198101116103e6576103da9260a091610362600019850188610c71565b52602081015161037660001985018d610c71565b52604081015161038a600019850189610c71565b52610399600019840188610c71565b50606081015115156103af60001985018b610c71565b5260808101516103c360001985018a610c71565b5201516103d460001983018a610c71565b52610c18565b96959493929196610165565b634e487b7160e01b600052601160045260246000fd5b60606020828501810191909152016100f5565b600080fd5b3461040f57604036600319011261040f5760043560005260016020526040600020602435600052602052604060002060018060a01b0381541660018201549161045f60028201610afe565b60ff6003830154169161049460056004830154920154926040519687968752602087015260c0604087015260c0860190610ba4565b9215156060850152608084015260a08301520390f35b3461040f57602036600319011261040f576004356000526000602052604060002080541561040f5760026020910154604051908152f35b3461040f57600036600319011261040f576020600254604051908152f35b3461040f57608036600319011261040f5760443567ffffffffffffffff811161040f57610530903690600401610a6d565b606435801515810361040f5760016024351015806107d5575b1561040f576004356000526000602052604060002080541561040f576002016105728154610c18565b905560043560005260006020526002604060002001546000194301904382116103e657604051906105a282610a2f565b33825260243560208301528460408301528315156060830152426080830152824060a0830152600435600052600160205260406000209060005260205260406000209060018060a01b038151166bffffffffffffffffffffffff60a01b83541617825560208101516001830155604081015180519067ffffffffffffffff82116107bf576106336002850154610ac4565b601f8111610778575b50602090601f83116001146107035791806005949260a0946000926106f8575b50508160011b916000199060031b1c19161760028501555b600384016060820151151560ff801983541691161790556080810151600485015501519101556106b760405193602435855260a0602086015260a0850190610ba4565b91151560408401524260608401524060808301527f6bcb19bb6bd9b5cd4a65e307f76652380164a9e8cc9ef32d06b60052b4a5d1a8339280600435930390a3005b01519050898061065c565b906002850160005260206000209160005b601f19851681106107605750926005949260019260a09583601f19811610610747575b505050811b016002850155610674565b015160001960f88460031b161c19169055898080610737565b91926020600181928685015181550194019201610714565b600285016000526020600020601f840160051c8101602085106107b8575b601f830160051c820181106107ac57505061063c565b60008155600101610796565b5080610796565b634e487b7160e01b600052604160045260246000fd5b5060056024351115610549565b3461040f57602036600319011261040f57600435600052600060205260406000208054600261081360018401610afe565b9201546108326040519384938452606060208501526060840190610ba4565b9060408301520390f35b3461040f5760208060031936011261040f5767ffffffffffffffff60043581811161040f5761086f903690600401610a6d565b61087a600254610c18565b91826002556040519060608201828110828211176107bf5760405283825284820190838252604083019460008652600052600086526040600020925183556001808401925180519283116107bf576108d28454610ac4565b601f81116109e6575b508790601f841160011461095a5792806002959381937f0855be7ab46e0ae9e0d9c2f3567377c0a577a8c726b7c88615644d282a1fc2919a9660009461094f575b50501b916000199060031b1c19161790555b519101556002549261094a604051928284938452830190610ba4565b0390a2005b015192508b8061091c565b90601f9392931983169185600052896000209260005b8b8282106109d2575050917f0855be7ab46e0ae9e0d9c2f3567377c0a577a8c726b7c88615644d282a1fc29199959391856002989694106109b9575b505050811b01905561092e565b015160001960f88460031b161c191690558980806109ac565b838501518655948701949384019301610970565b8460005288600020601f850160051c8101918a8610610a25575b601f0160051c019083905b828110610a195750506108db565b60008155018390610a0b565b9091508190610a00565b60c0810190811067ffffffffffffffff8211176107bf57604052565b90601f8019910116810190811067ffffffffffffffff8211176107bf57604052565b81601f8201121561040f5780359067ffffffffffffffff82116107bf5760405192610aa2601f8401601f191660200185610a4b565b8284526020838301011161040f57816000926020809301838601378301015290565b90600182811c92168015610af4575b6020831014610ade57565b634e487b7160e01b600052602260045260246000fd5b91607f1691610ad3565b9060405191826000825492610b1284610ac4565b908184526001948581169081600014610b815750600114610b3e575b5050610b3c92500383610a4b565b565b9093915060005260209081600020936000915b818310610b69575050610b3c93508201013880610b2e565b85548884018501529485019487945091830191610b51565b915050610b3c94506020925060ff191682840152151560051b8201013880610b2e565b919082519283825260005b848110610bd0575050826000602080949584010152601f8019910116010190565b602081830181015184830182015201610baf565b90815180825260208080930193019160005b828110610c04575050505090565b835185529381019392810192600101610bf6565b60001981146103e65760010190565b67ffffffffffffffff81116107bf5760051b60200190565b90610c4982610c27565b610c566040519182610a4b565b8281528092610c67601f1991610c27565b0190602036910137565b8051821015610c855760209160051b010190565b634e487b7160e01b600052603260045260246000fdfea26469706673582212200c58f26708f1a0a66d4189e572acd9cdd3aa33b71bef82e20c5e2b80289ef89e64736f6c63430008130033","opcodes":"PUSH1 0x80 DUP1 PUSH1 0x40 MSTORE CALLVALUE PUSH2 0x1B JUMPI PUSH1 0x0 PUSH1 0x2 SSTORE PUSH2 0xCD1 SWAP1 DUP2 PUSH2 0x21 DUP3 CODECOPY RETURN JUMPDEST PUSH1 0x0 DUP1 REVERT INVALID PUSH1 0x80 PUSH1 0x40 MSTORE PUSH1 0x4 CALLDATASIZE LT ISZERO PUSH2 0x12 JUMPI PUSH1 0x0 DUP1 REVERT JUMPDEST PUSH1 0x0 CALLDATALOAD PUSH1 0xE0 SHR DUP1 PUSH4 0xED047D4 EQ PUSH2 0x83C JUMPI DUP1 PUSH4 0x107046BD EQ PUSH2 0x7E2 JUMPI DUP1 PUSH4 0x2E5C306B EQ PUSH2 0x4FF JUMPI DUP1 PUSH4 0x36FBAD26 EQ PUSH2 0x4E1 JUMPI DUP1 PUSH4 0x5D75135A EQ PUSH2 0x4AA JUMPI DUP1 PUSH4 0x93B1523A EQ PUSH2 0x414 JUMPI PUSH4 0x9D4A2255 EQ PUSH2 0x69 JUMPI PUSH1 0x0 DUP1 REVERT JUMPDEST CALLVALUE PUSH2 0x40F JUMPI PUSH1 0x20 CALLDATASIZE PUSH1 0x3 NOT ADD SLT PUSH2 0x40F JUMPI PUSH1 0x4 CALLDATALOAD PUSH1 0x0 MSTORE PUSH1 0x0 PUSH1 0x20 MSTORE PUSH1 0x40 PUSH1 0x0 KECCAK256 DUP1 SLOAD ISZERO PUSH2 0x40F JUMPI PUSH1 0x2 ADD SLOAD PUSH2 0x9E DUP2 PUSH2 0xC27 JUMP JUMPDEST SWAP1 PUSH2 0xAC PUSH1 0x40 MLOAD SWAP3 DUP4 PUSH2 0xA4B JUMP JUMPDEST DUP1 DUP3 MSTORE PUSH1 0x1F NOT PUSH2 0xBB DUP3 PUSH2 0xC27 JUMP JUMPDEST ADD CALLDATASIZE PUSH1 0x20 DUP5 ADD CALLDATACOPY PUSH2 0xCB DUP2 PUSH2 0xC3F JUMP JUMPDEST SWAP1 PUSH2 0xD5 DUP2 PUSH2 0xC27 JUMP JUMPDEST PUSH2 0xE2 PUSH1 0x40 MLOAD SWAP2 DUP3 PUSH2 0xA4B JUMP JUMPDEST DUP2 DUP2 MSTORE PUSH1 0x1F NOT PUSH2 0xF1 DUP4 PUSH2 0xC27 JUMP JUMPDEST ADD PUSH1 0x0 JUMPDEST DUP2 DUP2 LT PUSH2 0x3FC JUMPI POP POP PUSH2 0x107 DUP3 PUSH2 0xC27 JUMP JUMPDEST SWAP1 PUSH2 0x115 PUSH1 0x40 MLOAD SWAP3 DUP4 PUSH2 0xA4B JUMP JUMPDEST DUP3 DUP3 MSTORE PUSH1 0x1F NOT PUSH2 0x124 DUP5 PUSH2 0xC27 JUMP JUMPDEST ADD CALLDATASIZE PUSH1 0x20 DUP5 ADD CALLDATACOPY PUSH2 0x134 DUP4 PUSH2 0xC3F JUMP JUMPDEST SWAP1 PUSH2 0x13E DUP5 PUSH2 0xC27 JUMP JUMPDEST SWAP4 PUSH2 0x14C PUSH1 0x40 MLOAD SWAP6 DUP7 PUSH2 0xA4B JUMP JUMPDEST DUP1 DUP6 MSTORE PUSH1 0x1F NOT PUSH2 0x15B DUP3 PUSH2 0xC27 JUMP JUMPDEST ADD CALLDATASIZE PUSH1 0x20 DUP8 ADD CALLDATACOPY PUSH1 0x1 JUMPDEST DUP2 DUP2 GT ISZERO PUSH2 0x2C0 JUMPI POP POP PUSH1 0x40 MLOAD SWAP6 DUP7 SWAP6 PUSH1 0xC0 DUP8 ADD PUSH1 0xC0 DUP9 MSTORE DUP3 MLOAD DUP1 SWAP2 MSTORE PUSH1 0x20 PUSH1 0xE0 DUP10 ADD SWAP4 ADD SWAP1 PUSH1 0x0 JUMPDEST DUP2 DUP2 LT PUSH2 0x29E JUMPI POP POP POP SWAP1 PUSH2 0x1AA SWAP2 DUP8 DUP3 SUB PUSH1 0x20 DUP10 ADD MSTORE PUSH2 0xBE4 JUMP JUMPDEST DUP6 DUP2 SUB PUSH1 0x40 DUP8 ADD MSTORE DUP2 MLOAD DUP1 DUP3 MSTORE PUSH1 0x20 DUP3 ADD SWAP2 PUSH1 0x20 DUP1 DUP4 PUSH1 0x5 SHL DUP4 ADD ADD SWAP5 ADD SWAP3 PUSH1 0x0 SWAP2 JUMPDEST DUP4 DUP4 LT PUSH2 0x267 JUMPI POP POP POP POP POP DUP5 DUP2 SUB PUSH1 0x60 DUP7 ADD MSTORE PUSH1 0x20 DUP1 DUP5 MLOAD SWAP3 DUP4 DUP2 MSTORE ADD SWAP4 ADD SWAP1 PUSH1 0x0 JUMPDEST DUP2 DUP2 LT PUSH2 0x24C JUMPI POP POP POP SWAP1 PUSH2 0x20D SWAP2 DUP5 DUP3 SUB PUSH1 0x80 DUP7 ADD MSTORE PUSH2 0xBE4 JUMP JUMPDEST DUP3 DUP2 SUB PUSH1 0xA0 DUP5 ADD MSTORE PUSH1 0x20 DUP1 DUP4 MLOAD SWAP3 DUP4 DUP2 MSTORE ADD SWAP3 ADD SWAP1 PUSH1 0x0 JUMPDEST DUP2 DUP2 LT PUSH2 0x233 JUMPI POP POP POP SUB SWAP1 RETURN JUMPDEST DUP3 MLOAD DUP5 MSTORE DUP6 SWAP5 POP PUSH1 0x20 SWAP4 DUP5 ADD SWAP4 SWAP1 SWAP3 ADD SWAP2 PUSH1 0x1 ADD PUSH2 0x225 JUMP JUMPDEST DUP3 MLOAD ISZERO ISZERO DUP6 MSTORE DUP8 SWAP7 POP PUSH1 0x20 SWAP5 DUP6 ADD SWAP5 SWAP1 SWAP3 ADD SWAP2 PUSH1 0x1 ADD PUSH2 0x1F1 JUMP JUMPDEST SWAP2 SWAP4 SWAP6 SWAP7 SWAP8 SWAP9 POP SWAP2 SWAP4 PUSH1 0x20 DUP1 PUSH2 0x289 PUSH1 0x1 SWAP4 PUSH1 0x1F NOT DUP7 DUP3 SUB ADD DUP8 MSTORE DUP10 MLOAD PUSH2 0xBA4 JUMP JUMPDEST SWAP8 ADD SWAP4 ADD SWAP4 ADD SWAP1 SWAP3 DUP10 SWAP9 SWAP8 SWAP7 SWAP6 SWAP5 SWAP3 SWAP4 PUSH2 0x1CD JUMP JUMPDEST DUP3 MLOAD PUSH1 0x1 PUSH1 0x1 PUSH1 0xA0 SHL SUB AND DUP6 MSTORE DUP11 SWAP10 POP PUSH1 0x20 SWAP5 DUP6 ADD SWAP5 SWAP1 SWAP3 ADD SWAP2 PUSH1 0x1 ADD PUSH2 0x18E JUMP JUMPDEST PUSH1 0x4 SWAP8 SWAP3 SWAP4 SWAP5 SWAP6 SWAP7 SWAP8 CALLDATALOAD PUSH1 0x0 MSTORE PUSH1 0x1 PUSH1 0x20 MSTORE PUSH1 0x40 PUSH1 0x0 KECCAK256 DUP2 PUSH1 0x0 MSTORE PUSH1 0x20 MSTORE PUSH1 0x40 PUSH1 0x0 KECCAK256 SWAP1 PUSH1 0x40 MLOAD SWAP2 PUSH2 0x2F1 DUP4 PUSH2 0xA2F JUMP JUMPDEST DUP1 SLOAD PUSH1 0x1 PUSH1 0x1 PUSH1 0xA0 SHL SUB SWAP1 DUP2 AND DUP5 MSTORE PUSH1 0x1 DUP3 ADD SLOAD PUSH1 0x20 DUP6 ADD MSTORE SWAP1 PUSH1 0x5 SWAP1 PUSH2 0x31A PUSH1 0x2 DUP3 ADD PUSH2 0xAFE JUMP JUMPDEST PUSH1 0x40 DUP7 ADD MSTORE PUSH1 0xFF PUSH1 0x3 DUP3 ADD SLOAD AND ISZERO ISZERO PUSH1 0x60 DUP7 ADD MSTORE PUSH1 0x4 DUP2 ADD SLOAD PUSH1 0x80 DUP7 ADD MSTORE ADD SLOAD PUSH1 0xA0 DUP5 ADD MSTORE DUP3 MLOAD AND DUP2 PUSH1 0x0 NOT DUP2 ADD GT PUSH2 0x3E6 JUMPI PUSH2 0x3DA SWAP3 PUSH1 0xA0 SWAP2 PUSH2 0x362 PUSH1 0x0 NOT DUP6 ADD DUP9 PUSH2 0xC71 JUMP JUMPDEST MSTORE PUSH1 0x20 DUP2 ADD MLOAD PUSH2 0x376 PUSH1 0x0 NOT DUP6 ADD DUP14 PUSH2 0xC71 JUMP JUMPDEST MSTORE PUSH1 0x40 DUP2 ADD MLOAD PUSH2 0x38A PUSH1 0x0 NOT DUP6 ADD DUP10 PUSH2 0xC71 JUMP JUMPDEST MSTORE PUSH2 0x399 PUSH1 0x0 NOT DUP5 ADD DUP9 PUSH2 0xC71 JUMP JUMPDEST POP PUSH1 0x60 DUP2 ADD MLOAD ISZERO ISZERO PUSH2 0x3AF PUSH1 0x0 NOT DUP6 ADD DUP12 PUSH2 0xC71 JUMP JUMPDEST MSTORE PUSH1 0x80 DUP2 ADD MLOAD PUSH2 0x3C3 PUSH1 0x0 NOT DUP6 ADD DUP11 PUSH2 0xC71 JUMP JUMPDEST MSTORE ADD MLOAD PUSH2 0x3D4 PUSH1 0x0 NOT DUP4 ADD DUP11 PUSH2 0xC71 JUMP JUMPDEST MSTORE PUSH2 0xC18 JUMP JUMPDEST SWAP7 SWAP6 SWAP5 SWAP4 SWAP3 SWAP2 SWAP7 PUSH2 0x165 JUMP JUMPDEST PUSH4 0x4E487B71 PUSH1 0xE0 SHL PUSH1 0x0 MSTORE PUSH1 0x11 PUSH1 0x4 MSTORE PUSH1 0x24 PUSH1 0x0 REVERT JUMPDEST PUSH1 0x60 PUSH1 0x20 DUP3 DUP6 ADD DUP2 ADD SWAP2 SWAP1 SWAP2 MSTORE ADD PUSH2 0xF5 JUMP JUMPDEST PUSH1 0x0 DUP1 REVERT JUMPDEST CALLVALUE PUSH2 0x40F JUMPI PUSH1 0x40 CALLDATASIZE PUSH1 0x3 NOT ADD SLT PUSH2 0x40F JUMPI PUSH1 0x4 CALLDATALOAD PUSH1 0x0 MSTORE PUSH1 0x1 PUSH1 0x20 MSTORE PUSH1 0x40 PUSH1 0x0 KECCAK256 PUSH1 0x24 CALLDATALOAD PUSH1 0x0 MSTORE PUSH1 0x20 MSTORE PUSH1 0x40 PUSH1 0x0 KECCAK256 PUSH1 0x1 DUP1 PUSH1 0xA0 SHL SUB DUP2 SLOAD AND PUSH1 0x1 DUP3 ADD SLOAD SWAP2 PUSH2 0x45F PUSH1 0x2 DUP3 ADD PUSH2 0xAFE JUMP JUMPDEST PUSH1 0xFF PUSH1 0x3 DUP4 ADD SLOAD AND SWAP2 PUSH2 0x494 PUSH1 0x5 PUSH1 0x4 DUP4 ADD SLOAD SWAP3 ADD SLOAD SWAP3 PUSH1 0x40 MLOAD SWAP7 DUP8 SWAP7 DUP8 MSTORE PUSH1 0x20 DUP8 ADD MSTORE PUSH1 0xC0 PUSH1 0x40 DUP8 ADD MSTORE PUSH1 0xC0 DUP7 ADD SWAP1 PUSH2 0xBA4 JUMP JUMPDEST SWAP3 ISZERO ISZERO PUSH1 0x60 DUP6 ADD MSTORE PUSH1 0x80 DUP5 ADD MSTORE PUSH1 0xA0 DUP4 ADD MSTORE SUB SWAP1 RETURN JUMPDEST CALLVALUE PUSH2 0x40F JUMPI PUSH1 0x20 CALLDATASIZE PUSH1 0x3 NOT ADD SLT PUSH2 0x40F JUMPI PUSH1 0x4 CALLDATALOAD PUSH1 0x0 MSTORE PUSH1 0x0 PUSH1 0x20 MSTORE PUSH1 0x40 PUSH1 0x0 KECCAK256 DUP1 SLOAD ISZERO PUSH2 0x40F JUMPI PUSH1 0x2 PUSH1 0x20 SWAP2 ADD SLOAD PUSH1 0x40 MLOAD SWAP1 DUP2 MSTORE RETURN JUMPDEST CALLVALUE PUSH2 0x40F JUMPI PUSH1 0x0 CALLDATASIZE PUSH1 0x3 NOT ADD SLT PUSH2 0x40F JUMPI PUSH1 0x20 PUSH1 0x2 SLOAD PUSH1 0x40 MLOAD SWAP1 DUP2 MSTORE RETURN JUMPDEST CALLVALUE PUSH2 0x40F JUMPI PUSH1 0x80 CALLDATASIZE PUSH1 0x3 NOT ADD SLT PUSH2 0x40F JUMPI PUSH1 0x44 CALLDATALOAD PUSH8 0xFFFFFFFFFFFFFFFF DUP2 GT PUSH2 0x40F JUMPI PUSH2 0x530 SWAP1 CALLDATASIZE SWAP1 PUSH1 0x4 ADD PUSH2 0xA6D JUMP JUMPDEST PUSH1 0x64 CALLDATALOAD DUP1 ISZERO ISZERO DUP2 SUB PUSH2 0x40F JUMPI PUSH1 0x1 PUSH1 0x24 CALLDATALOAD LT ISZERO DUP1 PUSH2 0x7D5 JUMPI JUMPDEST ISZERO PUSH2 0x40F JUMPI PUSH1 0x4 CALLDATALOAD PUSH1 0x0 MSTORE PUSH1 0x0 PUSH1 0x20 MSTORE PUSH1 0x40 PUSH1 0x0 KECCAK256 DUP1 SLOAD ISZERO PUSH2 0x40F JUMPI PUSH1 0x2 ADD PUSH2 0x572 DUP2 SLOAD PUSH2 0xC18 JUMP JUMPDEST SWAP1 SSTORE PUSH1 0x4 CALLDATALOAD PUSH1 0x0 MSTORE PUSH1 0x0 PUSH1 0x20 MSTORE PUSH1 0x2 PUSH1 0x40 PUSH1 0x0 KECCAK256 ADD SLOAD PUSH1 0x0 NOT NUMBER ADD SWAP1 NUMBER DUP3 GT PUSH2 0x3E6 JUMPI PUSH1 0x40 MLOAD SWAP1 PUSH2 0x5A2 DUP3 PUSH2 0xA2F JUMP JUMPDEST CALLER DUP3 MSTORE PUSH1 0x24 CALLDATALOAD PUSH1 0x20 DUP4 ADD MSTORE DUP5 PUSH1 0x40 DUP4 ADD MSTORE DUP4 ISZERO ISZERO PUSH1 0x60 DUP4 ADD MSTORE TIMESTAMP PUSH1 0x80 DUP4 ADD MSTORE DUP3 BLOCKHASH PUSH1 0xA0 DUP4 ADD MSTORE PUSH1 0x4 CALLDATALOAD PUSH1 0x0 MSTORE PUSH1 0x1 PUSH1 0x20 MSTORE PUSH1 0x40 PUSH1 0x0 KECCAK256 SWAP1 PUSH1 0x0 MSTORE PUSH1 0x20 MSTORE PUSH1 0x40 PUSH1 0x0 KECCAK256 SWAP1 PUSH1 0x1 DUP1 PUSH1 0xA0 SHL SUB DUP2 MLOAD AND PUSH12 0xFFFFFFFFFFFFFFFFFFFFFFFF PUSH1 0xA0 SHL DUP4 SLOAD AND OR DUP3 SSTORE PUSH1 0x20 DUP2 ADD MLOAD PUSH1 0x1 DUP4 ADD SSTORE PUSH1 0x40 DUP2 ADD MLOAD DUP1 MLOAD SWAP1 PUSH8 0xFFFFFFFFFFFFFFFF DUP3 GT PUSH2 0x7BF JUMPI PUSH2 0x633 PUSH1 0x2 DUP6 ADD SLOAD PUSH2 0xAC4 JUMP JUMPDEST PUSH1 0x1F DUP2 GT PUSH2 0x778 JUMPI JUMPDEST POP PUSH1 0x20 SWAP1 PUSH1 0x1F DUP4 GT PUSH1 0x1 EQ PUSH2 0x703 JUMPI SWAP2 DUP1 PUSH1 0x5 SWAP5 SWAP3 PUSH1 0xA0 SWAP5 PUSH1 0x0 SWAP3 PUSH2 0x6F8 JUMPI JUMPDEST POP POP DUP2 PUSH1 0x1 SHL SWAP2 PUSH1 0x0 NOT SWAP1 PUSH1 0x3 SHL SHR NOT AND OR PUSH1 0x2 DUP6 ADD SSTORE JUMPDEST PUSH1 0x3 DUP5 ADD PUSH1 0x60 DUP3 ADD MLOAD ISZERO ISZERO PUSH1 0xFF DUP1 NOT DUP4 SLOAD AND SWAP2 AND OR SWAP1 SSTORE PUSH1 0x80 DUP2 ADD MLOAD PUSH1 0x4 DUP6 ADD SSTORE ADD MLOAD SWAP2 ADD SSTORE PUSH2 0x6B7 PUSH1 0x40 MLOAD SWAP4 PUSH1 0x24 CALLDATALOAD DUP6 MSTORE PUSH1 0xA0 PUSH1 0x20 DUP7 ADD MSTORE PUSH1 0xA0 DUP6 ADD SWAP1 PUSH2 0xBA4 JUMP JUMPDEST SWAP2 ISZERO ISZERO PUSH1 0x40 DUP5 ADD MSTORE TIMESTAMP PUSH1 0x60 DUP5 ADD MSTORE BLOCKHASH PUSH1 0x80 DUP4 ADD MSTORE PUSH32 0x6BCB19BB6BD9B5CD4A65E307F76652380164A9E8CC9EF32D06B60052B4A5D1A8 CALLER SWAP3 DUP1 PUSH1 0x4 CALLDATALOAD SWAP4 SUB SWAP1 LOG3 STOP JUMPDEST ADD MLOAD SWAP1 POP DUP10 DUP1 PUSH2 0x65C JUMP JUMPDEST SWAP1 PUSH1 0x2 DUP6 ADD PUSH1 0x0 MSTORE PUSH1 0x20 PUSH1 0x0 KECCAK256 SWAP2 PUSH1 0x0 JUMPDEST PUSH1 0x1F NOT DUP6 AND DUP2 LT PUSH2 0x760 JUMPI POP SWAP3 PUSH1 0x5 SWAP5 SWAP3 PUSH1 0x1 SWAP3 PUSH1 0xA0 SWAP6 DUP4 PUSH1 0x1F NOT DUP2 AND LT PUSH2 0x747 JUMPI JUMPDEST POP POP POP DUP2 SHL ADD PUSH1 0x2 DUP6 ADD SSTORE PUSH2 0x674 JUMP JUMPDEST ADD MLOAD PUSH1 0x0 NOT PUSH1 0xF8 DUP5 PUSH1 0x3 SHL AND SHR NOT AND SWAP1 SSTORE DUP10 DUP1 DUP1 PUSH2 0x737 JUMP JUMPDEST SWAP2 SWAP3 PUSH1 0x20 PUSH1 0x1 DUP2 SWAP3 DUP7 DUP6 ADD MLOAD DUP2 SSTORE ADD SWAP5 ADD SWAP3 ADD PUSH2 0x714 JUMP JUMPDEST PUSH1 0x2 DUP6 ADD PUSH1 0x0 MSTORE PUSH1 0x20 PUSH1 0x0 KECCAK256 PUSH1 0x1F DUP5 ADD PUSH1 0x5 SHR DUP2 ADD PUSH1 0x20 DUP6 LT PUSH2 0x7B8 JUMPI JUMPDEST PUSH1 0x1F DUP4 ADD PUSH1 0x5 SHR DUP3 ADD DUP2 LT PUSH2 0x7AC JUMPI POP POP PUSH2 0x63C JUMP JUMPDEST PUSH1 0x0 DUP2 SSTORE PUSH1 0x1 ADD PUSH2 0x796 JUMP JUMPDEST POP DUP1 PUSH2 0x796 JUMP JUMPDEST PUSH4 0x4E487B71 PUSH1 0xE0 SHL PUSH1 0x0 MSTORE PUSH1 0x41 PUSH1 0x4 MSTORE PUSH1 0x24 PUSH1 0x0 REVERT JUMPDEST POP PUSH1 0x5 PUSH1 0x24 CALLDATALOAD GT ISZERO PUSH2 0x549 JUMP JUMPDEST CALLVALUE PUSH2 0x40F JUMPI PUSH1 0x20 CALLDATASIZE PUSH1 0x3 NOT ADD SLT PUSH2 0x40F JUMPI PUSH1 0x4 CALLDATALOAD PUSH1 0x0 MSTORE PUSH1 0x0 PUSH1 0x20 MSTORE PUSH1 0x40 PUSH1 0x0 KECCAK256 DUP1 SLOAD PUSH1 0x2 PUSH2 0x813 PUSH1 0x1 DUP5 ADD PUSH2 0xAFE JUMP JUMPDEST SWAP3 ADD SLOAD PUSH2 0x832 PUSH1 0x40 MLOAD SWAP4 DUP5 SWAP4 DUP5 MSTORE PUSH1 0x60 PUSH1 0x20 DUP6 ADD MSTORE PUSH1 0x60 DUP5 ADD SWAP1 PUSH2 0xBA4 JUMP JUMPDEST SWAP1 PUSH1 0x40 DUP4 ADD MSTORE SUB SWAP1 RETURN JUMPDEST CALLVALUE PUSH2 0x40F JUMPI PUSH1 0x20 DUP1 PUSH1 0x3 NOT CALLDATASIZE ADD SLT PUSH2 0x40F JUMPI PUSH8 0xFFFFFFFFFFFFFFFF PUSH1 0x4 CALLDATALOAD DUP2 DUP2 GT PUSH2 0x40F JUMPI PUSH2 0x86F SWAP1 CALLDATASIZE SWAP1 PUSH1 0x4 ADD PUSH2 0xA6D JUMP JUMPDEST PUSH2 0x87A PUSH1 0x2 SLOAD PUSH2 0xC18 JUMP JUMPDEST SWAP2 DUP3 PUSH1 0x2 SSTORE PUSH1 0x40 MLOAD SWAP1 PUSH1 0x60 DUP3 ADD DUP3 DUP2 LT DUP3 DUP3 GT OR PUSH2 0x7BF JUMPI PUSH1 0x40 MSTORE DUP4 DUP3 MSTORE DUP5 DUP3 ADD SWAP1 DUP4 DUP3 MSTORE PUSH1 0x40 DUP4 ADD SWAP5 PUSH1 0x0 DUP7 MSTORE PUSH1 0x0 MSTORE PUSH1 0x0 DUP7 MSTORE PUSH1 0x40 PUSH1 0x0 KECCAK256 SWAP3 MLOAD DUP4 SSTORE PUSH1 0x1 DUP1 DUP5 ADD SWAP3 MLOAD DUP1 MLOAD SWAP3 DUP4 GT PUSH2 0x7BF JUMPI PUSH2 0x8D2 DUP5 SLOAD PUSH2 0xAC4 JUMP JUMPDEST PUSH1 0x1F DUP2 GT PUSH2 0x9E6 JUMPI JUMPDEST POP DUP8 SWAP1 PUSH1 0x1F DUP5 GT PUSH1 0x1 EQ PUSH2 0x95A JUMPI SWAP3 DUP1 PUSH1 0x2 SWAP6 SWAP4 DUP2 SWAP4 PUSH32 0x855BE7AB46E0AE9E0D9C2F3567377C0A577A8C726B7C88615644D282A1FC291 SWAP11 SWAP7 PUSH1 0x0 SWAP5 PUSH2 0x94F JUMPI JUMPDEST POP POP SHL SWAP2 PUSH1 0x0 NOT SWAP1 PUSH1 0x3 SHL SHR NOT AND OR SWAP1 SSTORE JUMPDEST MLOAD SWAP2 ADD SSTORE PUSH1 0x2 SLOAD SWAP3 PUSH2 0x94A PUSH1 0x40 MLOAD SWAP3 DUP3 DUP5 SWAP4 DUP5 MSTORE DUP4 ADD SWAP1 PUSH2 0xBA4 JUMP JUMPDEST SUB SWAP1 LOG2 STOP JUMPDEST ADD MLOAD SWAP3 POP DUP12 DUP1 PUSH2 0x91C JUMP JUMPDEST SWAP1 PUSH1 0x1F SWAP4 SWAP3 SWAP4 NOT DUP4 AND SWAP2 DUP6 PUSH1 0x0 MSTORE DUP10 PUSH1 0x0 KECCAK256 SWAP3 PUSH1 0x0 JUMPDEST DUP12 DUP3 DUP3 LT PUSH2 0x9D2 JUMPI POP POP SWAP2 PUSH32 0x855BE7AB46E0AE9E0D9C2F3567377C0A577A8C726B7C88615644D282A1FC291 SWAP10 SWAP6 SWAP4 SWAP2 DUP6 PUSH1 0x2 SWAP9 SWAP7 SWAP5 LT PUSH2 0x9B9 JUMPI JUMPDEST POP POP POP DUP2 SHL ADD SWAP1 SSTORE PUSH2 0x92E JUMP JUMPDEST ADD MLOAD PUSH1 0x0 NOT PUSH1 0xF8 DUP5 PUSH1 0x3 SHL AND SHR NOT AND SWAP1 SSTORE DUP10 DUP1 DUP1 PUSH2 0x9AC JUMP JUMPDEST DUP4 DUP6 ADD MLOAD DUP7 SSTORE SWAP5 DUP8 ADD SWAP5 SWAP4 DUP5 ADD SWAP4 ADD PUSH2 0x970 JUMP JUMPDEST DUP5 PUSH1 0x0 MSTORE DUP9 PUSH1 0x0 KECCAK256 PUSH1 0x1F DUP6 ADD PUSH1 0x5 SHR DUP2 ADD SWAP2 DUP11 DUP7 LT PUSH2 0xA25 JUMPI JUMPDEST PUSH1 0x1F ADD PUSH1 0x5 SHR ADD SWAP1 DUP4 SWAP1 JUMPDEST DUP3 DUP2 LT PUSH2 0xA19 JUMPI POP POP PUSH2 0x8DB JUMP JUMPDEST PUSH1 0x0 DUP2 SSTORE ADD DUP4 SWAP1 PUSH2 0xA0B JUMP JUMPDEST SWAP1 SWAP2 POP DUP2 SWAP1 PUSH2 0xA00 JUMP JUMPDEST PUSH1 0xC0 DUP2 ADD SWAP1 DUP2 LT PUSH8 0xFFFFFFFFFFFFFFFF DUP3 GT OR PUSH2 0x7BF JUMPI PUSH1 0x40 MSTORE JUMP JUMPDEST SWAP1 PUSH1 0x1F DUP1 NOT SWAP2 ADD AND DUP2 ADD SWAP1 DUP2 LT PUSH8 0xFFFFFFFFFFFFFFFF DUP3 GT OR PUSH2 0x7BF JUMPI PUSH1 0x40 MSTORE JUMP JUMPDEST DUP2 PUSH1 0x1F DUP3 ADD SLT ISZERO PUSH2 0x40F JUMPI DUP1 CALLDATALOAD SWAP1 PUSH8 0xFFFFFFFFFFFFFFFF DUP3 GT PUSH2 0x7BF JUMPI PUSH1 0x40 MLOAD SWAP3 PUSH2 0xAA2 PUSH1 0x1F DUP5 ADD PUSH1 0x1F NOT AND PUSH1 0x20 ADD DUP6 PUSH2 0xA4B JUMP JUMPDEST DUP3 DUP5 MSTORE PUSH1 0x20 DUP4 DUP4 ADD ADD GT PUSH2 0x40F JUMPI DUP2 PUSH1 0x0 SWAP3 PUSH1 0x20 DUP1 SWAP4 ADD DUP4 DUP7 ADD CALLDATACOPY DUP4 ADD ADD MSTORE SWAP1 JUMP JUMPDEST SWAP1 PUSH1 0x1 DUP3 DUP2 SHR SWAP3 AND DUP1 ISZERO PUSH2 0xAF4 JUMPI JUMPDEST PUSH1 0x20 DUP4 LT EQ PUSH2 0xADE JUMPI JUMP JUMPDEST PUSH4 0x4E487B71 PUSH1 0xE0 SHL PUSH1 0x0 MSTORE PUSH1 0x22 PUSH1 0x4 MSTORE PUSH1 0x24 PUSH1 0x0 REVERT JUMPDEST SWAP2 PUSH1 0x7F AND SWAP2 PUSH2 0xAD3 JUMP JUMPDEST SWAP1 PUSH1 0x40 MLOAD SWAP2 DUP3 PUSH1 0x0 DUP3 SLOAD SWAP3 PUSH2 0xB12 DUP5 PUSH2 0xAC4 JUMP JUMPDEST SWAP1 DUP2 DUP5 MSTORE PUSH1 0x1 SWAP5 DUP6 DUP2 AND SWAP1 DUP2 PUSH1 0x0 EQ PUSH2 0xB81 JUMPI POP PUSH1 0x1 EQ PUSH2 0xB3E JUMPI JUMPDEST POP POP PUSH2 0xB3C SWAP3 POP SUB DUP4 PUSH2 0xA4B JUMP JUMPDEST JUMP JUMPDEST SWAP1 SWAP4 SWAP2 POP PUSH1 0x0 MSTORE PUSH1 0x20 SWAP1 DUP2 PUSH1 0x0 KECCAK256 SWAP4 PUSH1 0x0 SWAP2 JUMPDEST DUP2 DUP4 LT PUSH2 0xB69 JUMPI POP POP PUSH2 0xB3C SWAP4 POP DUP3 ADD ADD CODESIZE DUP1 PUSH2 0xB2E JUMP JUMPDEST DUP6 SLOAD DUP9 DUP5 ADD DUP6 ADD MSTORE SWAP5 DUP6 ADD SWAP5 DUP8 SWAP5 POP SWAP2 DUP4 ADD SWAP2 PUSH2 0xB51 JUMP JUMPDEST SWAP2 POP POP PUSH2 0xB3C SWAP5 POP PUSH1 0x20 SWAP3 POP PUSH1 0xFF NOT AND DUP3 DUP5 ADD MSTORE ISZERO ISZERO PUSH1 0x5 SHL DUP3 ADD ADD CODESIZE DUP1 PUSH2 0xB2E JUMP JUMPDEST SWAP2 SWAP1 DUP3 MLOAD SWAP3 DUP4 DUP3 MSTORE PUSH1 0x0 JUMPDEST DUP5 DUP2 LT PUSH2 0xBD0 JUMPI POP POP DUP3 PUSH1 0x0 PUSH1 0x20 DUP1 SWAP5 SWAP6 DUP5 ADD ADD MSTORE PUSH1 0x1F DUP1 NOT SWAP2 ADD AND ADD ADD SWAP1 JUMP JUMPDEST PUSH1 0x20 DUP2 DUP4 ADD DUP2 ADD MLOAD DUP5 DUP4 ADD DUP3 ADD MSTORE ADD PUSH2 0xBAF JUMP JUMPDEST SWAP1 DUP2 MLOAD DUP1 DUP3 MSTORE PUSH1 0x20 DUP1 DUP1 SWAP4 ADD SWAP4 ADD SWAP2 PUSH1 0x0 JUMPDEST DUP3 DUP2 LT PUSH2 0xC04 JUMPI POP POP POP POP SWAP1 JUMP JUMPDEST DUP4 MLOAD DUP6 MSTORE SWAP4 DUP2 ADD SWAP4 SWAP3 DUP2 ADD SWAP3 PUSH1 0x1 ADD PUSH2 0xBF6 JUMP JUMPDEST PUSH1 0x0 NOT DUP2 EQ PUSH2 0x3E6 JUMPI PUSH1 0x1 ADD SWAP1 JUMP JUMPDEST PUSH8 0xFFFFFFFFFFFFFFFF DUP2 GT PUSH2 0x7BF JUMPI PUSH1 0x5 SHL PUSH1 0x20 ADD SWAP1 JUMP JUMPDEST SWAP1 PUSH2 0xC49 DUP3 PUSH2 0xC27 JUMP JUMPDEST PUSH2 0xC56 PUSH1 0x40 MLOAD SWAP2 DUP3 PUSH2 0xA4B JUMP JUMPDEST DUP3 DUP2 MSTORE DUP1 SWAP3 PUSH2 0xC67 PUSH1 0x1F NOT SWAP2 PUSH2 0xC27 JUMP JUMPDEST ADD SWAP1 PUSH1 0x20 CALLDATASIZE SWAP2 ADD CALLDATACOPY JUMP JUMPDEST DUP1 MLOAD DUP3 LT ISZERO PUSH2 0xC85 JUMPI PUSH1 0x20 SWAP2 PUSH1 0x5 SHL ADD ADD SWAP1 JUMP JUMPDEST PUSH4 0x4E487B71 PUSH1 0xE0 SHL PUSH1 0x0 MSTORE PUSH1 0x32 PUSH1 0x4 MSTORE PUSH1 0x24 PUSH1 0x0 REVERT INVALID LOG2 PUSH5 0x6970667358 0x22 SLT KECCAK256 0xC PC CALLCODE PUSH8 0x8F1A0A66D4189E5 PUSH19 0xACD9CDD3AA33B71BEF82E20C5E2B80289EF89E PUSH5 0x736F6C6343 STOP ADDMOD SGT STOP CALLER "},"methodIdentifiers":{"addProject(string)":"0ed047d4","addReview(uint256,uint256,string,bool)":"2e5c306b","getReviewCount(uint256)":"5d75135a","getReviews(uint256)":"9d4a2255","projectCount()":"36fbad26","projectReviews(uint256,uint256)":"93b1523a","projects(uint256)":"107046bd"}}}}}