{
  "contractName": "BlockReview",
  "abi": [
    {
      "anonymous": false,
      "inputs": [
        {
          "indexed": true,
          "internalType": "uint256",
          "name": "projectId",
          "type": "uint256"
        },
        {
          "indexed": false,
          "internalType": "string",
          "name": "name",
          "type": "string"
        }
      ],
      "name": "ProjectAdded",
      "type": "event"
    },
    {
      "anonymous": false,
      "inputs": [
        {
          "indexed": true,
          "internalType": "uint256",
          "name": "projectId",
          "type": "uint256"
        },
        {
          "indexed": true,
          "internalType": "address",
          "name": "reviewer",
          "type": "address"
        },
        {
          "indexed": false,
          "internalType": "uint256",
          "name": "rating",
          "type": "uint256"
        },
        {
          "indexed": false,
          "internalType": "string",
          "name": "comments",
          "type": "string"
        },
        {
          "indexed": false,
          "internalType": "bool",
          "name": "verified",
          "type": "bool"
        }
      ],
      "name": "ReviewAdded",
      "type": "event"
    },
    {
      "inputs": [],
      "name": "projectCount",
      "outputs": [
        {
          "internalType": "uint256",
          "name": "",
          "type": "uint256"
        }
      ],
      "stateMutability": "view",
      "type": "function"
    },
    {
      "inputs": [
        {
          "internalType": "uint256",
          "name": "",
          "type": "uint256"
        },
        {
          "internalType": "uint256",
          "name": "",
          "type": "uint256"
        }
      ],
      "name": "projectReviews",
      "outputs": [
        {
          "internalType": "address",
          "name": "reviewer",
          "type": "address"
        },
        {
          "internalType": "uint256",
          "name": "rating",
          "type": "uint256"
        },
        {
          "internalType": "string",
          "name": "comments",
          "type": "string"
        },
        {
          "internalType": "bool",
          "name": "verified",
          "type": "bool"
        }
      ],
      "stateMutability": "view",
      "type": "function"
    },
    {
      "inputs": [
        {
          "internalType": "uint256",
          "name": "",
          "type": "uint256"
        }
      ],
      "name": "projects",
      "outputs": [
        {
          "internalType": "uint256",
          "name": "id",
          "type": "uint256"
        },
        {
          "internalType": "string",
          "name": "name",
          "type": "string"
        },
        {
          "internalType": "uint256",
          "name": "reviewCount",
          "type": "uint256"
        }
      ],
      "stateMutability": "view",
      "type": "function"
    },
    {
      "inputs": [
        {
          "internalType": "string",
          "name": "_name",
          "type": "string"
        }
      ],
      "name": "addProject",
      "outputs": [],
      "stateMutability": "nonpayable",
      "type": "function"
    },
    {
      "inputs": [
        {
          "internalType": "uint256",
          "name": "_projectId",
          "type": "uint256"
        },
        {
          "internalType": "uint256",
          "name": "_rating",
          "type": "uint256"
        },
        {
          "internalType": "string",
          "name": "_comments",
          "type": "string"
        },
        {
          "internalType": "bool",
          "name": "_verified",
          "type": "bool"
        }
      ],
      "name": "addReview",
      "outputs": [],
      "stateMutability": "nonpayable",
      "type": "function"
    },
    {
      "inputs": [
        {
          "internalType": "uint256",
          "name": "_projectId",
          "type": "uint256"
        }
      ],
      "name": "getReviews",
      "outputs": [
        {
          "internalType": "address[]",
          "name": "",
          "type": "address[]"
        },
        {
          "internalType": "uint256[]",
          "name": "",
          "type": "uint256[]"
        },
        {
          "internalType": "string[]",
          "name": "",
          "type": "string[]"
        },
        {
          "internalType": "bool[]",
          "name": "",
          "type": "bool[]"
        }
      ],
      "stateMutability": "view",
      "type": "function"
    },
    {
      "inputs": [
        {
          "internalType": "uint256",
          "name": "_projectId",
          "type": "uint256"
        }
      ],
      "name": "getReviewCount",
      "outputs": [
        {
          "internalType": "uint256",
          "name": "",
          "type": "uint256"
        }
      ],
      "stateMutability": "view",
      "type": "function"
    }
  ],
  "bytecode": "0x60806040525f600255348015610013575f80fd5b5061175a806100215f395ff3fe608060405234801561000f575f80fd5b506004361061007b575f3560e01c806336fbad261161005957806336fbad26146100e95780635d75135a1461010757806393b1523a146101375780639d4a22551461016a5761007b565b80630ed047d41461007f578063107046bd1461009b5780632e5c306b146100cd575b5f80fd5b61009960048036038101906100949190610bc6565b61019d565b005b6100b560048036038101906100b09190610c40565b61024b565b6040516100c493929190610cf4565b60405180910390f35b6100e760048036038101906100e29190610d65565b6102f6565b005b6100f1610513565b6040516100fe9190610de5565b60405180910390f35b610121600480360381019061011c9190610c40565b610519565b60405161012e9190610de5565b60405180910390f35b610151600480360381019061014c9190610dfe565b610589565b6040516101619493929190610e8a565b60405180910390f35b610184600480360381019061017f9190610c40565b610671565b60405161019494939291906111fc565b60405180910390f35b60025f8154809291906101af90611288565b9190505550604051806060016040528060025481526020018281526020015f8152505f8060025481526020019081526020015f205f820151815f0155602082015181600101908161020091906114c9565b50604082015181600201559050506002547f0855be7ab46e0ae9e0d9c2f3567377c0a577a8c726b7c88615644d282a1fc291826040516102409190611598565b60405180910390a250565b5f602052805f5260405f205f91509050805f01549080600101805461026f906112fc565b80601f016020809104026020016040519081016040528092919081815260200182805461029b906112fc565b80156102e65780601f106102bd576101008083540402835291602001916102e6565b820191905f5260205f20905b8154815290600101906020018083116102c957829003601f168201915b5050505050908060020154905083565b60018310158015610308575060058311155b610347576040517f08c379a000000000000000000000000000000000000000000000000000000000815260040161033e90611602565b60405180910390fd5b5f805f8681526020019081526020015f205f01540361039b576040517f08c379a00000000000000000000000000000000000000000000000000000000081526004016103929061166a565b60405180910390fd5b5f808581526020019081526020015f206002015f8154809291906103be90611288565b91905055505f805f8681526020019081526020015f2060020154905060405180608001604052803373ffffffffffffffffffffffffffffffffffffffff16815260200185815260200184815260200183151581525060015f8781526020019081526020015f205f8381526020019081526020015f205f820151815f015f6101000a81548173ffffffffffffffffffffffffffffffffffffffff021916908373ffffffffffffffffffffffffffffffffffffffff16021790555060208201518160010155604082015181600201908161049691906114c9565b506060820151816003015f6101000a81548160ff0219169083151502179055509050503373ffffffffffffffffffffffffffffffffffffffff16857fca55f3df8e1b1545a36880a3ff5af7fb9e8d13505162d8c3553242aca74b422386868660405161050493929190611688565b60405180910390a35050505050565b60025481565b5f805f808481526020019081526020015f205f01540361056e576040517f08c379a00000000000000000000000000000000000000000000000000000000081526004016105659061166a565b60405180910390fd5b5f808381526020019081526020015f20600201549050919050565b6001602052815f5260405f20602052805f5260405f205f9150915050805f015f9054906101000a900473ffffffffffffffffffffffffffffffffffffffff16908060010154908060020180546105de906112fc565b80601f016020809104026020016040519081016040528092919081815260200182805461060a906112fc565b80156106555780601f1061062c57610100808354040283529160200191610655565b820191905f5260205f20905b81548152906001019060200180831161063857829003601f168201915b505050505090806003015f9054906101000a900460ff16905084565b6060806060805f805f8781526020019081526020015f205f0154036106cb576040517f08c379a00000000000000000000000000000000000000000000000000000000081526004016106c29061166a565b60405180910390fd5b5f805f8781526020019081526020015f206002015490505f8167ffffffffffffffff8111156106fd576106fc610aa2565b5b60405190808252806020026020018201604052801561072b5781602001602082028036833780820191505090505b5090505f8267ffffffffffffffff81111561074957610748610aa2565b5b6040519080825280602002602001820160405280156107775781602001602082028036833780820191505090505b5090505f8367ffffffffffffffff81111561079557610794610aa2565b5b6040519080825280602002602001820160405280156107c857816020015b60608152602001906001900390816107b35790505b5090505f8467ffffffffffffffff8111156107e6576107e5610aa2565b5b6040519080825280602002602001820160405280156108145781602001602082028036833780820191505090505b5090505f600190505b858111610a60575f60015f8d81526020019081526020015f205f8381526020019081526020015f206040518060800160405290815f82015f9054906101000a900473ffffffffffffffffffffffffffffffffffffffff1673ffffffffffffffffffffffffffffffffffffffff1673ffffffffffffffffffffffffffffffffffffffff168152602001600182015481526020016002820180546108be906112fc565b80601f01602080910402602001604051908101604052809291908181526020018280546108ea906112fc565b80156109355780601f1061090c57610100808354040283529160200191610935565b820191905f5260205f20905b81548152906001019060200180831161091857829003601f168201915b50505050508152602001600382015f9054906101000a900460ff1615151515815250509050805f01518660018461096c91906116c4565b8151811061097d5761097c6116f7565b5b602002602001019073ffffffffffffffffffffffffffffffffffffffff16908173ffffffffffffffffffffffffffffffffffffffff16815250508060200151856001846109ca91906116c4565b815181106109db576109da6116f7565b5b6020026020010181815250508060400151846001846109fa91906116c4565b81518110610a0b57610a0a6116f7565b5b6020026020010181905250806060015183600184610a2991906116c4565b81518110610a3a57610a396116f7565b5b602002602001019015159081151581525050508080610a5890611288565b91505061081d565b5083838383985098509850985050505050509193509193565b5f604051905090565b5f80fd5b5f80fd5b5f80fd5b5f80fd5b5f601f19601f8301169050919050565b7f4e487b71000000000000000000000000000000000000000000000000000000005f52604160045260245ffd5b610ad882610a92565b810181811067ffffffffffffffff82111715610af757610af6610aa2565b5b80604052505050565b5f610b09610a79565b9050610b158282610acf565b919050565b5f67ffffffffffffffff821115610b3457610b33610aa2565b5b610b3d82610a92565b9050602081019050919050565b828183375f83830152505050565b5f610b6a610b6584610b1a565b610b00565b905082815260208101848484011115610b8657610b85610a8e565b5b610b91848285610b4a565b509392505050565b5f82601f830112610bad57610bac610a8a565b5b8135610bbd848260208601610b58565b91505092915050565b5f60208284031215610bdb57610bda610a82565b5b5f82013567ffffffffffffffff811115610bf857610bf7610a86565b5b610c0484828501610b99565b91505092915050565b5f819050919050565b610c1f81610c0d565b8114610c29575f80fd5b50565b5f81359050610c3a81610c16565b92915050565b5f60208284031215610c5557610c54610a82565b5b5f610c6284828501610c2c565b91505092915050565b610c7481610c0d565b82525050565b5f81519050919050565b5f82825260208201905092915050565b5f5b83811015610cb1578082015181840152602081019050610c96565b5f8484015250505050565b5f610cc682610c7a565b610cd08185610c84565b9350610ce0818560208601610c94565b610ce981610a92565b840191505092915050565b5f606082019050610d075f830186610c6b565b8181036020830152610d198185610cbc565b9050610d286040830184610c6b565b949350505050565b5f8115159050919050565b610d4481610d30565b8114610d4e575f80fd5b50565b5f81359050610d5f81610d3b565b92915050565b5f805f8060808587031215610d7d57610d7c610a82565b5b5f610d8a87828801610c2c565b9450506020610d9b87828801610c2c565b935050604085013567ffffffffffffffff811115610dbc57610dbb610a86565b5b610dc887828801610b99565b9250506060610dd987828801610d51565b91505092959194509250565b5f602082019050610df85f830184610c6b565b92915050565b5f8060408385031215610e1457610e13610a82565b5b5f610e2185828601610c2c565b9250506020610e3285828601610c2c565b9150509250929050565b5f73ffffffffffffffffffffffffffffffffffffffff82169050919050565b5f610e6582610e3c565b9050919050565b610e7581610e5b565b82525050565b610e8481610d30565b82525050565b5f608082019050610e9d5f830187610e6c565b610eaa6020830186610c6b565b8181036040830152610ebc8185610cbc565b9050610ecb6060830184610e7b565b95945050505050565b5f81519050919050565b5f82825260208201905092915050565b5f819050602082019050919050565b610f0681610e5b565b82525050565b5f610f178383610efd565b60208301905092915050565b5f602082019050919050565b5f610f3982610ed4565b610f438185610ede565b9350610f4e83610eee565b805f5b83811015610f7e578151610f658882610f0c565b9750610f7083610f23565b925050600181019050610f51565b5085935050505092915050565b5f81519050919050565b5f82825260208201905092915050565b5f819050602082019050919050565b610fbd81610c0d565b82525050565b5f610fce8383610fb4565b60208301905092915050565b5f602082019050919050565b5f610ff082610f8b565b610ffa8185610f95565b935061100583610fa5565b805f5b8381101561103557815161101c8882610fc3565b975061102783610fda565b925050600181019050611008565b5085935050505092915050565b5f81519050919050565b5f82825260208201905092915050565b5f819050602082019050919050565b5f82825260208201905092915050565b5f61108582610c7a565b61108f818561106b565b935061109f818560208601610c94565b6110a881610a92565b840191505092915050565b5f6110be838361107b565b905092915050565b5f602082019050919050565b5f6110dc82611042565b6110e6818561104c565b9350836020820285016110f88561105c565b805f5b85811015611133578484038952815161111485826110b3565b945061111f836110c6565b925060208a019950506001810190506110fb565b50829750879550505050505092915050565b5f81519050919050565b5f82825260208201905092915050565b5f819050602082019050919050565b61117781610d30565b82525050565b5f611188838361116e565b60208301905092915050565b5f602082019050919050565b5f6111aa82611145565b6111b4818561114f565b93506111bf8361115f565b805f5b838110156111ef5781516111d6888261117d565b97506111e183611194565b9250506001810190506111c2565b5085935050505092915050565b5f6080820190508181035f8301526112148187610f2f565b905081810360208301526112288186610fe6565b9050818103604083015261123c81856110d2565b9050818103606083015261125081846111a0565b905095945050505050565b7f4e487b71000000000000000000000000000000000000000000000000000000005f52601160045260245ffd5b5f61129282610c0d565b91507fffffffffffffffffffffffffffffffffffffffffffffffffffffffffffffffff82036112c4576112c361125b565b5b600182019050919050565b7f4e487b71000000000000000000000000000000000000000000000000000000005f52602260045260245ffd5b5f600282049050600182168061131357607f821691505b602082108103611326576113256112cf565b5b50919050565b5f819050815f5260205f209050919050565b5f6020601f8301049050919050565b5f82821b905092915050565b5f600883026113887fffffffffffffffffffffffffffffffffffffffffffffffffffffffffffffffff8261134d565b611392868361134d565b95508019841693508086168417925050509392505050565b5f819050919050565b5f6113cd6113c86113c384610c0d565b6113aa565b610c0d565b9050919050565b5f819050919050565b6113e6836113b3565b6113fa6113f2826113d4565b848454611359565b825550505050565b5f90565b61140e611402565b6114198184846113dd565b505050565b5b8181101561143c576114315f82611406565b60018101905061141f565b5050565b601f821115611481576114528161132c565b61145b8461133e565b8101602085101561146a578190505b61147e6114768561133e565b83018261141e565b50505b505050565b5f82821c905092915050565b5f6114a15f1984600802611486565b1980831691505092915050565b5f6114b98383611492565b9150826002028217905092915050565b6114d282610c7a565b67ffffffffffffffff8111156114eb576114ea610aa2565b5b6114f582546112fc565b611500828285611440565b5f60209050601f831160018114611531575f841561151f578287015190505b61152985826114ae565b865550611590565b601f19841661153f8661132c565b5f5b8281101561156657848901518255600182019150602085019450602081019050611541565b86831015611583578489015161157f601f891682611492565b8355505b6001600288020188555050505b505050505050565b5f6020820190508181035f8301526115b08184610cbc565b905092915050565b7f526174696e67206d757374206265206265747765656e203120616e64203500005f82015250565b5f6115ec601e83610c84565b91506115f7826115b8565b602082019050919050565b5f6020820190508181035f830152611619816115e0565b9050919050565b7f50726f6a65637420646f6573206e6f74206578697374000000000000000000005f82015250565b5f611654601683610c84565b915061165f82611620565b602082019050919050565b5f6020820190508181035f83015261168181611648565b9050919050565b5f60608201905061169b5f830186610c6b565b81810360208301526116ad8185610cbc565b90506116bc6040830184610e7b565b949350505050565b5f6116ce82610c0d565b91506116d983610c0d565b92508282039050818111156116f1576116f061125b565b5b92915050565b7f4e487b71000000000000000000000000000000000000000000000000000000005f52603260045260245ffdfea2646970667358221220bce185e87e22c6ef2cb486dbf697569db0e9b778b0b3c728362215fd6b29bf5764736f6c63430008140033",
  "immutableReferences": {},
  "source": "// SPDX-License-Identifier: MIT\npragma solidity ^0.8.20;\n\ncontract BlockReview {\n    struct Review {\n        address reviewer;\n        uint rating;\n        string comments;\n        bool verified;\n    }\n\n    struct Project {\n        uint id;\n        string name;\n        uint reviewCount;\n    }\n\n    mapping(uint => Project) public projects;\n    mapping(uint => mapping(uint => Review)) public projectReviews;\n\n    uint public projectCount = 0;\n\n    // Define events\n    event ProjectAdded(uint indexed projectId, string name);\n    event ReviewAdded(\n        uint indexed projectId,\n        address indexed reviewer,\n        uint rating,\n        string comments,\n        bool verified\n    );\n\n    function addProject(string memory _name) public {\n        projectCount++;\n        projects[projectCount] = Project(projectCount, _name, 0);\n\n        // Emit the event\n        emit ProjectAdded(projectCount, _name);\n    }\n\n    function addReview(\n        uint _projectId,\n        uint _rating,\n        string memory _comments,\n        bool _verified\n    ) public {\n        require(_rating >= 1 && _rating <= 5, \"Rating must be between 1 and 5\");\n        require(projects[_projectId].id != 0, \"Project does not exist\");\n\n        projects[_projectId].reviewCount++;\n        uint reviewId = projects[_projectId].reviewCount;\n        projectReviews[_projectId][reviewId] = Review(\n            msg.sender,\n            _rating,\n            _comments,\n            _verified\n        );\n\n        // Emit the event\n        emit ReviewAdded(_projectId, msg.sender, _rating, _comments, _verified);\n    }\n\n    function getReviews(\n        uint _projectId\n    )\n        public\n        view\n        returns (\n            address[] memory,\n            uint[] memory,\n            string[] memory,\n            bool[] memory\n        )\n    {\n        require(projects[_projectId].id != 0, \"Project does not exist\");\n\n        uint reviewCount = projects[_projectId].reviewCount;\n        address[] memory reviewers = new address[](reviewCount);\n        uint[] memory ratings = new uint[](reviewCount);\n        string[] memory comments = new string[](reviewCount);\n        bool[] memory verifiedStatuses = new bool[](reviewCount);\n\n        for (uint i = 1; i <= reviewCount; i++) {\n            Review memory review = projectReviews[_projectId][i];\n            reviewers[i - 1] = review.reviewer;\n            ratings[i - 1] = review.rating;\n            comments[i - 1] = review.comments;\n            verifiedStatuses[i - 1] = review.verified;\n        }\n\n        return (reviewers, ratings, comments, verifiedStatuses);\n    }\n\n    function getReviewCount(uint _projectId) public view returns (uint) {\n        require(projects[_projectId].id != 0, \"Project does not exist\");\n        return projects[_projectId].reviewCount;\n    }\n}\n",
  "sourcePath": "/Users/maxquirk/projects/johnnyd-eth/block-review/backend/contracts/BlockReview.sol",
  "compiler": {
    "name": "solc",
    "version": "0.8.20+commit.a1b79de6.Emscripten.clang"
  },
  "schemaVersion": "3.4.14",
  "updatedAt": "2023-06-30T10:17:29.246Z",
  "devdoc": {
    "kind": "dev",
    "methods": {},
    "version": 1
  },
  "userdoc": {
    "kind": "user",
    "methods": {},
    "version": 1
  }
}