{
  "_format": "hh-sol-artifact-1",
  "contractName": "BlockReview",
  "sourceName": "contracts/BlockReview.sol",
  "abi": [
    {
      "anonymous": false,
      "inputs": [
        {
          "indexed": true,
          "internalType": "uint256",
          "name": "projectId",
          "type": "uint256"
        },
        {
          "indexed": false,
          "internalType": "string",
          "name": "name",
          "type": "string"
        }
      ],
      "name": "ProjectAdded",
      "type": "event"
    },
    {
      "anonymous": false,
      "inputs": [
        {
          "indexed": true,
          "internalType": "uint256",
          "name": "projectId",
          "type": "uint256"
        },
        {
          "indexed": true,
          "internalType": "address",
          "name": "reviewer",
          "type": "address"
        },
        {
          "indexed": false,
          "internalType": "uint256",
          "name": "rating",
          "type": "uint256"
        },
        {
          "indexed": false,
          "internalType": "string",
          "name": "comments",
          "type": "string"
        },
        {
          "indexed": false,
          "internalType": "bool",
          "name": "verified",
          "type": "bool"
        },
        {
          "indexed": false,
          "internalType": "uint256",
          "name": "timestamp",
          "type": "uint256"
        },
        {
          "indexed": false,
          "internalType": "bytes32",
          "name": "transactionHash",
          "type": "bytes32"
        }
      ],
      "name": "ReviewAdded",
      "type": "event"
    },
    {
      "inputs": [
        {
          "internalType": "string",
          "name": "_name",
          "type": "string"
        }
      ],
      "name": "addProject",
      "outputs": [],
      "stateMutability": "nonpayable",
      "type": "function"
    },
    {
      "inputs": [
        {
          "internalType": "uint256",
          "name": "_projectId",
          "type": "uint256"
        },
        {
          "internalType": "uint256",
          "name": "_rating",
          "type": "uint256"
        },
        {
          "internalType": "string",
          "name": "_comments",
          "type": "string"
        },
        {
          "internalType": "bool",
          "name": "_verified",
          "type": "bool"
        }
      ],
      "name": "addReview",
      "outputs": [],
      "stateMutability": "nonpayable",
      "type": "function"
    },
    {
      "inputs": [
        {
          "internalType": "uint256",
          "name": "_projectId",
          "type": "uint256"
        }
      ],
      "name": "getReviewCount",
      "outputs": [
        {
          "internalType": "uint256",
          "name": "",
          "type": "uint256"
        }
      ],
      "stateMutability": "view",
      "type": "function"
    },
    {
      "inputs": [
        {
          "internalType": "uint256",
          "name": "_projectId",
          "type": "uint256"
        }
      ],
      "name": "getReviews",
      "outputs": [
        {
          "internalType": "address[]",
          "name": "",
          "type": "address[]"
        },
        {
          "internalType": "uint256[]",
          "name": "",
          "type": "uint256[]"
        },
        {
          "internalType": "string[]",
          "name": "",
          "type": "string[]"
        },
        {
          "internalType": "bool[]",
          "name": "",
          "type": "bool[]"
        },
        {
          "internalType": "uint256[]",
          "name": "",
          "type": "uint256[]"
        },
        {
          "internalType": "bytes32[]",
          "name": "",
          "type": "bytes32[]"
        }
      ],
      "stateMutability": "view",
      "type": "function"
    },
    {
      "inputs": [],
      "name": "projectCount",
      "outputs": [
        {
          "internalType": "uint256",
          "name": "",
          "type": "uint256"
        }
      ],
      "stateMutability": "view",
      "type": "function"
    },
    {
      "inputs": [
        {
          "internalType": "uint256",
          "name": "",
          "type": "uint256"
        },
        {
          "internalType": "uint256",
          "name": "",
          "type": "uint256"
        }
      ],
      "name": "projectReviews",
      "outputs": [
        {
          "internalType": "address",
          "name": "reviewer",
          "type": "address"
        },
        {
          "internalType": "uint256",
          "name": "rating",
          "type": "uint256"
        },
        {
          "internalType": "string",
          "name": "comments",
          "type": "string"
        },
        {
          "internalType": "bool",
          "name": "verified",
          "type": "bool"
        },
        {
          "internalType": "uint256",
          "name": "timestamp",
          "type": "uint256"
        },
        {
          "internalType": "bytes32",
          "name": "transactionHash",
          "type": "bytes32"
        }
      ],
      "stateMutability": "view",
      "type": "function"
    },
    {
      "inputs": [
        {
          "internalType": "uint256",
          "name": "",
          "type": "uint256"
        }
      ],
      "name": "projects",
      "outputs": [
        {
          "internalType": "uint256",
          "name": "id",
          "type": "uint256"
        },
        {
          "internalType": "string",
          "name": "name",
          "type": "string"
        },
        {
          "internalType": "uint256",
          "name": "reviewCount",
          "type": "uint256"
        }
      ],
      "stateMutability": "view",
      "type": "function"
    }
  ],
  "bytecode": "0x6080806040523461001b576000600255610cd190816100218239f35b600080fdfe6080604052600436101561001257600080fd5b60003560e01c80630ed047d41461083c578063107046bd146107e25780632e5c306b146104ff57806336fbad26146104e15780635d75135a146104aa57806393b1523a1461041457639d4a22551461006957600080fd5b3461040f57602036600319011261040f576004356000526000602052604060002080541561040f576002015461009e81610c27565b906100ac6040519283610a4b565b808252601f196100bb82610c27565b013660208401376100cb81610c3f565b906100d581610c27565b6100e26040519182610a4b565b818152601f196100f183610c27565b0160005b8181106103fc57505061010782610c27565b906101156040519283610a4b565b828252601f1961012484610c27565b0136602084013761013483610c3f565b9061013e84610c27565b9361014c6040519586610a4b565b808552601f1961015b82610c27565b0136602087013760015b818111156102c057505060405195869560c0870160c088528251809152602060e0890193019060005b81811061029e57505050906101aa918782036020890152610be4565b8581036040870152815180825260208201916020808360051b8301019401926000915b83831061026757505050505084810360608601526020808451928381520193019060005b81811061024c575050509061020d918482036080860152610be4565b82810360a08401526020808351928381520192019060005b818110610233575050500390f35b8251845285945060209384019390920191600101610225565b825115158552879650602094850194909201916001016101f1565b919395969798509193602080610289600193601f198682030187528951610ba4565b970193019301909289989796959492936101cd565b82516001600160a01b031685528a99506020948501949092019160010161018e565b600497929394959697356000526001602052604060002081600052602052604060002090604051916102f183610a2f565b80546001600160a01b039081168452600182015460208501529060059061031a60028201610afe565b604086015260ff6003820154161515606086015260048101546080860152015460a0840152825116816000198101116103e6576103da9260a091610362600019850188610c71565b52602081015161037660001985018d610c71565b52604081015161038a600019850189610c71565b52610399600019840188610c71565b50606081015115156103af60001985018b610c71565b5260808101516103c360001985018a610c71565b5201516103d460001983018a610c71565b52610c18565b96959493929196610165565b634e487b7160e01b600052601160045260246000fd5b60606020828501810191909152016100f5565b600080fd5b3461040f57604036600319011261040f5760043560005260016020526040600020602435600052602052604060002060018060a01b0381541660018201549161045f60028201610afe565b60ff6003830154169161049460056004830154920154926040519687968752602087015260c0604087015260c0860190610ba4565b9215156060850152608084015260a08301520390f35b3461040f57602036600319011261040f576004356000526000602052604060002080541561040f5760026020910154604051908152f35b3461040f57600036600319011261040f576020600254604051908152f35b3461040f57608036600319011261040f5760443567ffffffffffffffff811161040f57610530903690600401610a6d565b606435801515810361040f5760016024351015806107d5575b1561040f576004356000526000602052604060002080541561040f576002016105728154610c18565b905560043560005260006020526002604060002001546000194301904382116103e657604051906105a282610a2f565b33825260243560208301528460408301528315156060830152426080830152824060a0830152600435600052600160205260406000209060005260205260406000209060018060a01b038151166bffffffffffffffffffffffff60a01b83541617825560208101516001830155604081015180519067ffffffffffffffff82116107bf576106336002850154610ac4565b601f8111610778575b50602090601f83116001146107035791806005949260a0946000926106f8575b50508160011b916000199060031b1c19161760028501555b600384016060820151151560ff801983541691161790556080810151600485015501519101556106b760405193602435855260a0602086015260a0850190610ba4565b91151560408401524260608401524060808301527f6bcb19bb6bd9b5cd4a65e307f76652380164a9e8cc9ef32d06b60052b4a5d1a8339280600435930390a3005b01519050898061065c565b906002850160005260206000209160005b601f19851681106107605750926005949260019260a09583601f19811610610747575b505050811b016002850155610674565b015160001960f88460031b161c19169055898080610737565b91926020600181928685015181550194019201610714565b600285016000526020600020601f840160051c8101602085106107b8575b601f830160051c820181106107ac57505061063c565b60008155600101610796565b5080610796565b634e487b7160e01b600052604160045260246000fd5b5060056024351115610549565b3461040f57602036600319011261040f57600435600052600060205260406000208054600261081360018401610afe565b9201546108326040519384938452606060208501526060840190610ba4565b9060408301520390f35b3461040f5760208060031936011261040f5767ffffffffffffffff60043581811161040f5761086f903690600401610a6d565b61087a600254610c18565b91826002556040519060608201828110828211176107bf5760405283825284820190838252604083019460008652600052600086526040600020925183556001808401925180519283116107bf576108d28454610ac4565b601f81116109e6575b508790601f841160011461095a5792806002959381937f0855be7ab46e0ae9e0d9c2f3567377c0a577a8c726b7c88615644d282a1fc2919a9660009461094f575b50501b916000199060031b1c19161790555b519101556002549261094a604051928284938452830190610ba4565b0390a2005b015192508b8061091c565b90601f9392931983169185600052896000209260005b8b8282106109d2575050917f0855be7ab46e0ae9e0d9c2f3567377c0a577a8c726b7c88615644d282a1fc29199959391856002989694106109b9575b505050811b01905561092e565b015160001960f88460031b161c191690558980806109ac565b838501518655948701949384019301610970565b8460005288600020601f850160051c8101918a8610610a25575b601f0160051c019083905b828110610a195750506108db565b60008155018390610a0b565b9091508190610a00565b60c0810190811067ffffffffffffffff8211176107bf57604052565b90601f8019910116810190811067ffffffffffffffff8211176107bf57604052565b81601f8201121561040f5780359067ffffffffffffffff82116107bf5760405192610aa2601f8401601f191660200185610a4b565b8284526020838301011161040f57816000926020809301838601378301015290565b90600182811c92168015610af4575b6020831014610ade57565b634e487b7160e01b600052602260045260246000fd5b91607f1691610ad3565b9060405191826000825492610b1284610ac4565b908184526001948581169081600014610b815750600114610b3e575b5050610b3c92500383610a4b565b565b9093915060005260209081600020936000915b818310610b69575050610b3c93508201013880610b2e565b85548884018501529485019487945091830191610b51565b915050610b3c94506020925060ff191682840152151560051b8201013880610b2e565b919082519283825260005b848110610bd0575050826000602080949584010152601f8019910116010190565b602081830181015184830182015201610baf565b90815180825260208080930193019160005b828110610c04575050505090565b835185529381019392810192600101610bf6565b60001981146103e65760010190565b67ffffffffffffffff81116107bf5760051b60200190565b90610c4982610c27565b610c566040519182610a4b565b8281528092610c67601f1991610c27565b0190602036910137565b8051821015610c855760209160051b010190565b634e487b7160e01b600052603260045260246000fdfea26469706673582212200c58f26708f1a0a66d4189e572acd9cdd3aa33b71bef82e20c5e2b80289ef89e64736f6c63430008130033",
  "linkReferences": {},
  "deployedLinkReferences": {}
}